{
  "address": "0x5FbDB2315678afecb367f032d93F642f64180aa3",
  "abi": [
    {
      "inputs": [
        {
          "internalType": "address",
          "name": "owner",
          "type": "address"
        }
      ],
      "stateMutability": "nonpayable",
      "type": "constructor"
    },
    {
      "inputs": [],
      "name": "Certify__OutOfIndex",
      "type": "error"
    },
    {
      "inputs": [
        {
          "internalType": "address",
          "name": "newAuthority",
          "type": "address"
        }
      ],
      "name": "addAuthority",
      "outputs": [],
      "stateMutability": "nonpayable",
      "type": "function"
    },
    {
      "inputs": [
        {
          "internalType": "address",
          "name": "newIssuer",
          "type": "address"
        }
      ],
      "name": "addIssuer",
      "outputs": [],
      "stateMutability": "nonpayable",
      "type": "function"
    },
    {
      "inputs": [
        {
          "internalType": "address",
          "name": "",
          "type": "address"
        }
      ],
      "name": "authorities",
      "outputs": [
        {
          "internalType": "uint8",
          "name": "",
          "type": "uint8"
        }
      ],
      "stateMutability": "view",
      "type": "function"
    },
    {
      "inputs": [
        {
          "internalType": "address",
          "name": "user",
          "type": "address"
        }
      ],
      "name": "getAllCertificates",
      "outputs": [
        {
          "components": [
            {
              "internalType": "string",
              "name": "id",
              "type": "string"
            },
            {
              "internalType": "address",
              "name": "issuedTo",
              "type": "address"
            },
            {
              "internalType": "address",
              "name": "issuedBy",
              "type": "address"
            },
            {
              "internalType": "uint256",
              "name": "issuedAt",
              "type": "uint256"
            },
            {
              "internalType": "bool",
              "name": "isRevoked",
              "type": "bool"
            },
            {
              "internalType": "string",
              "name": "encryptedData",
              "type": "string"
            }
          ],
          "internalType": "struct Certify.Certificate[]",
          "name": "",
          "type": "tuple[]"
        }
      ],
      "stateMutability": "view",
      "type": "function"
    },
    {
      "inputs": [],
      "name": "getAuthorityStatus",
      "outputs": [
        {
          "internalType": "uint256",
          "name": "",
          "type": "uint256"
        }
      ],
      "stateMutability": "view",
      "type": "function"
    },
    {
      "inputs": [
        {
          "internalType": "address",
          "name": "user",
          "type": "address"
        },
        {
          "internalType": "uint256",
          "name": "index",
          "type": "uint256"
        }
      ],
      "name": "getCertificate",
      "outputs": [
        {
          "components": [
            {
              "internalType": "string",
              "name": "id",
              "type": "string"
            },
            {
              "internalType": "address",
              "name": "issuedTo",
              "type": "address"
            },
            {
              "internalType": "address",
              "name": "issuedBy",
              "type": "address"
            },
            {
              "internalType": "uint256",
              "name": "issuedAt",
              "type": "uint256"
            },
            {
              "internalType": "bool",
              "name": "isRevoked",
              "type": "bool"
            },
            {
              "internalType": "string",
              "name": "encryptedData",
              "type": "string"
            }
          ],
          "internalType": "struct Certify.Certificate",
          "name": "",
          "type": "tuple"
        }
      ],
      "stateMutability": "view",
      "type": "function"
    },
    {
      "inputs": [
        {
          "components": [
            {
              "internalType": "string",
              "name": "id",
              "type": "string"
            },
            {
              "internalType": "address",
              "name": "issuedTo",
              "type": "address"
            },
            {
              "internalType": "address",
              "name": "issuedBy",
              "type": "address"
            },
            {
              "internalType": "uint256",
              "name": "issuedAt",
              "type": "uint256"
            },
            {
              "internalType": "bool",
              "name": "isRevoked",
              "type": "bool"
            },
            {
              "internalType": "string",
              "name": "encryptedData",
              "type": "string"
            }
          ],
          "internalType": "struct Certify.Certificate",
          "name": "newCert",
          "type": "tuple"
        }
      ],
      "name": "issueCertificate",
      "outputs": [],
      "stateMutability": "nonpayable",
      "type": "function"
    },
    {
      "inputs": [
        {
          "internalType": "address",
          "name": "",
          "type": "address"
        }
      ],
      "name": "issuers",
      "outputs": [
        {
          "internalType": "uint8",
          "name": "",
          "type": "uint8"
        }
      ],
      "stateMutability": "view",
      "type": "function"
    },
    {
      "inputs": [
        {
          "internalType": "address",
          "name": "existingAuthority",
          "type": "address"
        }
      ],
      "name": "removeAuthority",
      "outputs": [],
      "stateMutability": "nonpayable",
      "type": "function"
    },
    {
      "inputs": [
        {
          "internalType": "address",
          "name": "existingIssuer",
          "type": "address"
        }
      ],
      "name": "removeIssuer",
      "outputs": [],
      "stateMutability": "nonpayable",
      "type": "function"
    },
    {
      "inputs": [
        {
          "internalType": "address",
          "name": "user",
          "type": "address"
        },
        {
          "internalType": "uint256",
          "name": "index",
          "type": "uint256"
        }
      ],
      "name": "revokeCertificate",
      "outputs": [],
      "stateMutability": "nonpayable",
      "type": "function"
    }
  ],
  "transactionHash": "0xc7c8775c57270822a2e13c645688b3abc59839aadb681d196392117ea407c767",
  "args": [
    "0xf39Fd6e51aad88F6F4ce6aB8827279cffFb92266"
  ],
  "numDeployments": 1,
  "solcInputHash": "400c615eb312ed7e9c0f09cf47260ea6",
  "bytecode": "0x60a06040523480156200001157600080fd5b5060405162001e7b38038062001e7b833981810160405281019062000037919062000134565b8073ffffffffffffffffffffffffffffffffffffffff1660808173ffffffffffffffffffffffffffffffffffffffff168152505060016000808373ffffffffffffffffffffffffffffffffffffffff1673ffffffffffffffffffffffffffffffffffffffff16815260200190815260200160002060006101000a81548160ff021916908360ff1602179055505062000166565b600080fd5b600073ffffffffffffffffffffffffffffffffffffffff82169050919050565b6000620000fc82620000cf565b9050919050565b6200010e81620000ef565b81146200011a57600080fd5b50565b6000815190506200012e8162000103565b92915050565b6000602082840312156200014d576200014c620000ca565b5b60006200015d848285016200011d565b91505092915050565b608051611ce462000197600039600081816104b7015281816105f90152818161075b0152610ba60152611ce46000f3fe608060405234801561001057600080fd5b50600436106100a95760003560e01c8063540549a011610071578063540549a01461014e578063817bb3311461016c57806391223d691461019c578063d544e010146101cc578063ec1fe611146101e8578063ee5354a514610218576100a9565b80631344ea0a146100ae57806320694db0146100ca57806326defa73146100e657806338a7543e1461010257806347bc709314610132575b600080fd5b6100c860048036038101906100c39190611417565b610234565b005b6100e460048036038101906100df9190611460565b61045d565b005b61010060048036038101906100fb9190611460565b61059f565b005b61011c60048036038101906101179190611460565b6106e1565b60405161012991906114a9565b60405180910390f35b61014c60048036038101906101479190611460565b610701565b005b610156610844565b60405161016391906114d3565b60405180910390f35b610186600480360381019061018191906114ee565b61089a565b604051610193919061166a565b60405180910390f35b6101b660048036038101906101b19190611460565b610b84565b6040516101c391906114a9565b60405180910390f35b6101e660048036038101906101e19190611460565b610ba4565b005b61020260048036038101906101fd9190611460565b610c8d565b60405161020f91906117de565b60405180910390f35b610232600480360381019061022d91906114ee565b610f20565b005b60018060003373ffffffffffffffffffffffffffffffffffffffff1673ffffffffffffffffffffffffffffffffffffffff16815260200190815260200160002060009054906101000a900460ff1660ff16146102c5576040517f08c379a00000000000000000000000000000000000000000000000000000000081526004016102bc90611883565b60405180910390fd5b4281606001818152505033816040019073ffffffffffffffffffffffffffffffffffffffff16908173ffffffffffffffffffffffffffffffffffffffff168152505060026000826020015173ffffffffffffffffffffffffffffffffffffffff1673ffffffffffffffffffffffffffffffffffffffff16815260200190815260200160002081908060018154018082558091505060019003906000526020600020906006020160009091909190915060008201518160000190816103899190611aaf565b5060208201518160010160006101000a81548173ffffffffffffffffffffffffffffffffffffffff021916908373ffffffffffffffffffffffffffffffffffffffff16021790555060408201518160020160006101000a81548173ffffffffffffffffffffffffffffffffffffffff021916908373ffffffffffffffffffffffffffffffffffffffff1602179055506060820151816003015560808201518160040160006101000a81548160ff02191690831515021790555060a08201518160050190816104579190611aaf565b50505050565b60016000803373ffffffffffffffffffffffffffffffffffffffff1673ffffffffffffffffffffffffffffffffffffffff16815260200190815260200160002060009054906101000a900460ff1660ff16148061050557507f000000000000000000000000000000000000000000000000000000000000000073ffffffffffffffffffffffffffffffffffffffff163373ffffffffffffffffffffffffffffffffffffffff16145b610544576040517f08c379a000000000000000000000000000000000000000000000000000000000815260040161053b90611bcd565b60405180910390fd5b60018060008373ffffffffffffffffffffffffffffffffffffffff1673ffffffffffffffffffffffffffffffffffffffff16815260200190815260200160002060006101000a81548160ff021916908360ff16021790555050565b60016000803373ffffffffffffffffffffffffffffffffffffffff1673ffffffffffffffffffffffffffffffffffffffff16815260200190815260200160002060009054906101000a900460ff1660ff16148061064757507f000000000000000000000000000000000000000000000000000000000000000073ffffffffffffffffffffffffffffffffffffffff163373ffffffffffffffffffffffffffffffffffffffff16145b610686576040517f08c379a000000000000000000000000000000000000000000000000000000000815260040161067d90611bcd565b60405180910390fd5b60016000808373ffffffffffffffffffffffffffffffffffffffff1673ffffffffffffffffffffffffffffffffffffffff16815260200190815260200160002060006101000a81548160ff021916908360ff16021790555050565b60016020528060005260406000206000915054906101000a900460ff1681565b60016000803373ffffffffffffffffffffffffffffffffffffffff1673ffffffffffffffffffffffffffffffffffffffff16815260200190815260200160002060009054906101000a900460ff1660ff1614806107a957507f000000000000000000000000000000000000000000000000000000000000000073ffffffffffffffffffffffffffffffffffffffff163373ffffffffffffffffffffffffffffffffffffffff16145b6107e8576040517f08c379a00000000000000000000000000000000000000000000000000000000081526004016107df90611bcd565b60405180910390fd5b6000600160008373ffffffffffffffffffffffffffffffffffffffff1673ffffffffffffffffffffffffffffffffffffffff16815260200190815260200160002060006101000a81548160ff021916908360ff16021790555050565b60008060003373ffffffffffffffffffffffffffffffffffffffff1673ffffffffffffffffffffffffffffffffffffffff16815260200190815260200160002060009054906101000a900460ff1660ff16905090565b6108a26110ab565b81600260008573ffffffffffffffffffffffffffffffffffffffff1673ffffffffffffffffffffffffffffffffffffffff168152602001908152602001600020805490501161091d576040517f4953dd7600000000000000000000000000000000000000000000000000000000815260040160405180910390fd5b600260008473ffffffffffffffffffffffffffffffffffffffff1673ffffffffffffffffffffffffffffffffffffffff168152602001908152602001600020828154811061096e5761096d611bed565b5b90600052602060002090600602016040518060c0016040529081600082018054610997906118d2565b80601f01602080910402602001604051908101604052809291908181526020018280546109c3906118d2565b8015610a105780601f106109e557610100808354040283529160200191610a10565b820191906000526020600020905b8154815290600101906020018083116109f357829003601f168201915b505050505081526020016001820160009054906101000a900473ffffffffffffffffffffffffffffffffffffffff1673ffffffffffffffffffffffffffffffffffffffff1673ffffffffffffffffffffffffffffffffffffffff1681526020016002820160009054906101000a900473ffffffffffffffffffffffffffffffffffffffff1673ffffffffffffffffffffffffffffffffffffffff1673ffffffffffffffffffffffffffffffffffffffff168152602001600382015481526020016004820160009054906101000a900460ff16151515158152602001600582018054610afa906118d2565b80601f0160208091040260200160405190810160405280929190818152602001828054610b26906118d2565b8015610b735780601f10610b4857610100808354040283529160200191610b73565b820191906000526020600020905b815481529060010190602001808311610b5657829003601f168201915b505050505081525050905092915050565b60006020528060005260406000206000915054906101000a900460ff1681565b7f000000000000000000000000000000000000000000000000000000000000000073ffffffffffffffffffffffffffffffffffffffff163373ffffffffffffffffffffffffffffffffffffffff1614610c32576040517f08c379a0000000000000000000000000000000000000000000000000000000008152600401610c2990611c8e565b60405180910390fd5b60008060008373ffffffffffffffffffffffffffffffffffffffff1673ffffffffffffffffffffffffffffffffffffffff16815260200190815260200160002060006101000a81548160ff021916908360ff16021790555050565b6060600260008373ffffffffffffffffffffffffffffffffffffffff1673ffffffffffffffffffffffffffffffffffffffff168152602001908152602001600020805480602002602001604051908101604052809291908181526020016000905b82821015610f1557838290600052602060002090600602016040518060c0016040529081600082018054610d21906118d2565b80601f0160208091040260200160405190810160405280929190818152602001828054610d4d906118d2565b8015610d9a5780601f10610d6f57610100808354040283529160200191610d9a565b820191906000526020600020905b815481529060010190602001808311610d7d57829003601f168201915b505050505081526020016001820160009054906101000a900473ffffffffffffffffffffffffffffffffffffffff1673ffffffffffffffffffffffffffffffffffffffff1673ffffffffffffffffffffffffffffffffffffffff1681526020016002820160009054906101000a900473ffffffffffffffffffffffffffffffffffffffff1673ffffffffffffffffffffffffffffffffffffffff1673ffffffffffffffffffffffffffffffffffffffff168152602001600382015481526020016004820160009054906101000a900460ff16151515158152602001600582018054610e84906118d2565b80601f0160208091040260200160405190810160405280929190818152602001828054610eb0906118d2565b8015610efd5780601f10610ed257610100808354040283529160200191610efd565b820191906000526020600020905b815481529060010190602001808311610ee057829003601f168201915b50505050508152505081526020019060010190610cee565b505050509050919050565b60018060003373ffffffffffffffffffffffffffffffffffffffff1673ffffffffffffffffffffffffffffffffffffffff16815260200190815260200160002060009054906101000a900460ff1660ff1614610fb1576040517f08c379a0000000000000000000000000000000000000000000000000000000008152600401610fa890611883565b60405180910390fd5b80600260008473ffffffffffffffffffffffffffffffffffffffff1673ffffffffffffffffffffffffffffffffffffffff168152602001908152602001600020805490501161102c576040517f4953dd7600000000000000000000000000000000000000000000000000000000815260040160405180910390fd5b6001600260008473ffffffffffffffffffffffffffffffffffffffff1673ffffffffffffffffffffffffffffffffffffffff168152602001908152602001600020828154811061107f5761107e611bed565b5b906000526020600020906006020160040160006101000a81548160ff0219169083151502179055505050565b6040518060c0016040528060608152602001600073ffffffffffffffffffffffffffffffffffffffff168152602001600073ffffffffffffffffffffffffffffffffffffffff16815260200160008152602001600015158152602001606081525090565b6000604051905090565b600080fd5b600080fd5b600080fd5b6000601f19601f8301169050919050565b7f4e487b7100000000000000000000000000000000000000000000000000000000600052604160045260246000fd5b61117182611128565b810181811067ffffffffffffffff821117156111905761118f611139565b5b80604052505050565b60006111a361110f565b90506111af8282611168565b919050565b600080fd5b600080fd5b600080fd5b600067ffffffffffffffff8211156111de576111dd611139565b5b6111e782611128565b9050602081019050919050565b82818337600083830152505050565b6000611216611211846111c3565b611199565b905082815260208101848484011115611232576112316111be565b5b61123d8482856111f4565b509392505050565b600082601f83011261125a576112596111b9565b5b813561126a848260208601611203565b91505092915050565b600073ffffffffffffffffffffffffffffffffffffffff82169050919050565b600061129e82611273565b9050919050565b6112ae81611293565b81146112b957600080fd5b50565b6000813590506112cb816112a5565b92915050565b6000819050919050565b6112e4816112d1565b81146112ef57600080fd5b50565b600081359050611301816112db565b92915050565b60008115159050919050565b61131c81611307565b811461132757600080fd5b50565b60008135905061133981611313565b92915050565b600060c0828403121561135557611354611123565b5b61135f60c0611199565b9050600082013567ffffffffffffffff81111561137f5761137e6111b4565b5b61138b84828501611245565b600083015250602061139f848285016112bc565b60208301525060406113b3848285016112bc565b60408301525060606113c7848285016112f2565b60608301525060806113db8482850161132a565b60808301525060a082013567ffffffffffffffff8111156113ff576113fe6111b4565b5b61140b84828501611245565b60a08301525092915050565b60006020828403121561142d5761142c611119565b5b600082013567ffffffffffffffff81111561144b5761144a61111e565b5b6114578482850161133f565b91505092915050565b60006020828403121561147657611475611119565b5b6000611484848285016112bc565b91505092915050565b600060ff82169050919050565b6114a38161148d565b82525050565b60006020820190506114be600083018461149a565b92915050565b6114cd816112d1565b82525050565b60006020820190506114e860008301846114c4565b92915050565b6000806040838503121561150557611504611119565b5b6000611513858286016112bc565b9250506020611524858286016112f2565b9150509250929050565b600081519050919050565b600082825260208201905092915050565b60005b8381101561156857808201518184015260208101905061154d565b60008484015250505050565b600061157f8261152e565b6115898185611539565b935061159981856020860161154a565b6115a281611128565b840191505092915050565b6115b681611293565b82525050565b6115c5816112d1565b82525050565b6115d481611307565b82525050565b600060c08301600083015184820360008601526115f78282611574565b915050602083015161160c60208601826115ad565b50604083015161161f60408601826115ad565b50606083015161163260608601826115bc565b50608083015161164560808601826115cb565b5060a083015184820360a086015261165d8282611574565b9150508091505092915050565b6000602082019050818103600083015261168481846115da565b905092915050565b600081519050919050565b600082825260208201905092915050565b6000819050602082019050919050565b600060c08301600083015184820360008601526116d58282611574565b91505060208301516116ea60208601826115ad565b5060408301516116fd60408601826115ad565b50606083015161171060608601826115bc565b50608083015161172360808601826115cb565b5060a083015184820360a086015261173b8282611574565b9150508091505092915050565b600061175483836116b8565b905092915050565b6000602082019050919050565b60006117748261168c565b61177e8185611697565b935083602082028501611790856116a8565b8060005b858110156117cc57848403895281516117ad8582611748565b94506117b88361175c565b925060208a01995050600181019050611794565b50829750879550505050505092915050565b600060208201905081810360008301526117f88184611769565b905092915050565b600082825260208201905092915050565b7f4f6e6c7920697373756572732063616e2063616c6c20746869732066756e637460008201527f696f6e0000000000000000000000000000000000000000000000000000000000602082015250565b600061186d602383611800565b915061187882611811565b604082019050919050565b6000602082019050818103600083015261189c81611860565b9050919050565b7f4e487b7100000000000000000000000000000000000000000000000000000000600052602260045260246000fd5b600060028204905060018216806118ea57607f821691505b6020821081036118fd576118fc6118a3565b5b50919050565b60008190508160005260206000209050919050565b60006020601f8301049050919050565b600082821b905092915050565b6000600883026119657fffffffffffffffffffffffffffffffffffffffffffffffffffffffffffffffff82611928565b61196f8683611928565b95508019841693508086168417925050509392505050565b6000819050919050565b60006119ac6119a76119a2846112d1565b611987565b6112d1565b9050919050565b6000819050919050565b6119c683611991565b6119da6119d2826119b3565b848454611935565b825550505050565b600090565b6119ef6119e2565b6119fa8184846119bd565b505050565b5b81811015611a1e57611a136000826119e7565b600181019050611a00565b5050565b601f821115611a6357611a3481611903565b611a3d84611918565b81016020851015611a4c578190505b611a60611a5885611918565b8301826119ff565b50505b505050565b600082821c905092915050565b6000611a8660001984600802611a68565b1980831691505092915050565b6000611a9f8383611a75565b9150826002028217905092915050565b611ab88261152e565b67ffffffffffffffff811115611ad157611ad0611139565b5b611adb82546118d2565b611ae6828285611a22565b600060209050601f831160018114611b195760008415611b07578287015190505b611b118582611a93565b865550611b79565b601f198416611b2786611903565b60005b82811015611b4f57848901518255600182019150602085019450602081019050611b2a565b86831015611b6c5784890151611b68601f891682611a75565b8355505b6001600288020188555050505b505050505050565b7f4e6f7420616e20417574686f7269747900000000000000000000000000000000600082015250565b6000611bb7601083611800565b9150611bc282611b81565b602082019050919050565b60006020820190508181036000830152611be681611baa565b9050919050565b7f4e487b7100000000000000000000000000000000000000000000000000000000600052603260045260246000fd5b7f4f6e6c79206f776e6572732063616e2063616c6c20746869732066756e63746960008201527f6f6e000000000000000000000000000000000000000000000000000000000000602082015250565b6000611c78602283611800565b9150611c8382611c1c565b604082019050919050565b60006020820190508181036000830152611ca781611c6b565b905091905056fea26469706673582212205d6edb2be5ce2eb0d973b66eed04e9592525f4dae663630f69d57c3229912ef564736f6c63430008120033",
  "devdoc": {
    "kind": "dev",
    "methods": {},
    "version": 1
  },
  "userdoc": {
    "kind": "user",
    "methods": {},
    "version": 1
  },
  "storageLayout": {
    "storage": [
      {
        "astId": 7,
        "contract": "contracts/Certify.sol:Certify",
        "label": "authorities",
        "offset": 0,
        "slot": "0",
        "type": "t_mapping(t_address,t_uint8)"
      },
      {
        "astId": 11,
        "contract": "contracts/Certify.sol:Certify",
        "label": "issuers",
        "offset": 0,
        "slot": "1",
        "type": "t_mapping(t_address,t_uint8)"
      },
      {
        "astId": 17,
        "contract": "contracts/Certify.sol:Certify",
        "label": "certificates",
        "offset": 0,
        "slot": "2",
        "type": "t_mapping(t_address,t_array(t_struct(Certificate)32_storage)dyn_storage)"
      }
    ],
    "types": {
      "t_address": {
        "encoding": "inplace",
        "label": "address",
        "numberOfBytes": "20"
      },
      "t_array(t_struct(Certificate)32_storage)dyn_storage": {
        "base": "t_struct(Certificate)32_storage",
        "encoding": "dynamic_array",
        "label": "struct Certify.Certificate[]",
        "numberOfBytes": "32"
      },
      "t_bool": {
        "encoding": "inplace",
        "label": "bool",
        "numberOfBytes": "1"
      },
      "t_mapping(t_address,t_array(t_struct(Certificate)32_storage)dyn_storage)": {
        "encoding": "mapping",
        "key": "t_address",
        "label": "mapping(address => struct Certify.Certificate[])",
        "numberOfBytes": "32",
        "value": "t_array(t_struct(Certificate)32_storage)dyn_storage"
      },
      "t_mapping(t_address,t_uint8)": {
        "encoding": "mapping",
        "key": "t_address",
        "label": "mapping(address => uint8)",
        "numberOfBytes": "32",
        "value": "t_uint8"
      },
      "t_string_storage": {
        "encoding": "bytes",
        "label": "string",
        "numberOfBytes": "32"
      },
      "t_struct(Certificate)32_storage": {
        "encoding": "inplace",
        "label": "struct Certify.Certificate",
        "members": [
          {
            "astId": 21,
            "contract": "contracts/Certify.sol:Certify",
            "label": "id",
            "offset": 0,
            "slot": "0",
            "type": "t_string_storage"
          },
          {
            "astId": 23,
            "contract": "contracts/Certify.sol:Certify",
            "label": "issuedTo",
            "offset": 0,
            "slot": "1",
            "type": "t_address"
          },
          {
            "astId": 25,
            "contract": "contracts/Certify.sol:Certify",
            "label": "issuedBy",
            "offset": 0,
            "slot": "2",
            "type": "t_address"
          },
          {
            "astId": 27,
            "contract": "contracts/Certify.sol:Certify",
            "label": "issuedAt",
            "offset": 0,
            "slot": "3",
            "type": "t_uint256"
          },
          {
            "astId": 29,
            "contract": "contracts/Certify.sol:Certify",
            "label": "isRevoked",
            "offset": 0,
            "slot": "4",
            "type": "t_bool"
          },
          {
            "astId": 31,
            "contract": "contracts/Certify.sol:Certify",
            "label": "encryptedData",
            "offset": 0,
            "slot": "5",
            "type": "t_string_storage"
          }
        ],
        "numberOfBytes": "192"
      },
      "t_uint256": {
        "encoding": "inplace",
        "label": "uint256",
        "numberOfBytes": "32"
      },
      "t_uint8": {
        "encoding": "inplace",
        "label": "uint8",
        "numberOfBytes": "1"
      }
    }
  }
}