{
  "address": "0x5FbDB2315678afecb367f032d93F642f64180aa3",
  "abi": [
    {
      "inputs": [
        {
          "internalType": "address",
          "name": "owner",
          "type": "address"
        }
      ],
      "stateMutability": "nonpayable",
      "type": "constructor"
    },
    {
      "inputs": [],
      "name": "Certify__OutOfIndex",
      "type": "error"
    },
    {
      "inputs": [
        {
          "internalType": "address",
          "name": "newAuthority",
          "type": "address"
        }
      ],
      "name": "addAuthority",
      "outputs": [],
      "stateMutability": "nonpayable",
      "type": "function"
    },
    {
      "inputs": [
        {
          "internalType": "address",
          "name": "newIssuer",
          "type": "address"
        }
      ],
      "name": "addIssuer",
      "outputs": [],
      "stateMutability": "nonpayable",
      "type": "function"
    },
    {
      "inputs": [
        {
          "internalType": "address",
          "name": "",
          "type": "address"
        }
      ],
      "name": "authorities",
      "outputs": [
        {
          "internalType": "uint8",
          "name": "",
          "type": "uint8"
        }
      ],
      "stateMutability": "view",
      "type": "function"
    },
    {
      "inputs": [
        {
          "internalType": "address",
          "name": "user",
          "type": "address"
        }
      ],
      "name": "getAllCertificates",
      "outputs": [
        {
          "components": [
            {
              "internalType": "address",
              "name": "issuedTo",
              "type": "address"
            },
            {
              "internalType": "address",
              "name": "issuedBy",
              "type": "address"
            },
            {
              "internalType": "uint256",
              "name": "issuedAt",
              "type": "uint256"
            },
            {
              "internalType": "bool",
              "name": "isRevoked",
              "type": "bool"
            },
            {
              "internalType": "string",
              "name": "encryptedData",
              "type": "string"
            }
          ],
          "internalType": "struct Certify.Certificate[]",
          "name": "",
          "type": "tuple[]"
        }
      ],
      "stateMutability": "view",
      "type": "function"
    },
    {
      "inputs": [
        {
          "internalType": "address",
          "name": "user",
          "type": "address"
        },
        {
          "internalType": "uint256",
          "name": "index",
          "type": "uint256"
        }
      ],
      "name": "getCertificate",
      "outputs": [
        {
          "components": [
            {
              "internalType": "address",
              "name": "issuedTo",
              "type": "address"
            },
            {
              "internalType": "address",
              "name": "issuedBy",
              "type": "address"
            },
            {
              "internalType": "uint256",
              "name": "issuedAt",
              "type": "uint256"
            },
            {
              "internalType": "bool",
              "name": "isRevoked",
              "type": "bool"
            },
            {
              "internalType": "string",
              "name": "encryptedData",
              "type": "string"
            }
          ],
          "internalType": "struct Certify.Certificate",
          "name": "",
          "type": "tuple"
        }
      ],
      "stateMutability": "view",
      "type": "function"
    },
    {
      "inputs": [
        {
          "components": [
            {
              "internalType": "address",
              "name": "issuedTo",
              "type": "address"
            },
            {
              "internalType": "address",
              "name": "issuedBy",
              "type": "address"
            },
            {
              "internalType": "uint256",
              "name": "issuedAt",
              "type": "uint256"
            },
            {
              "internalType": "bool",
              "name": "isRevoked",
              "type": "bool"
            },
            {
              "internalType": "string",
              "name": "encryptedData",
              "type": "string"
            }
          ],
          "internalType": "struct Certify.Certificate",
          "name": "newCert",
          "type": "tuple"
        }
      ],
      "name": "issueCertificate",
      "outputs": [],
      "stateMutability": "nonpayable",
      "type": "function"
    },
    {
      "inputs": [
        {
          "internalType": "address",
          "name": "",
          "type": "address"
        }
      ],
      "name": "issuers",
      "outputs": [
        {
          "internalType": "uint8",
          "name": "",
          "type": "uint8"
        }
      ],
      "stateMutability": "view",
      "type": "function"
    },
    {
      "inputs": [
        {
          "internalType": "address",
          "name": "existingAuthority",
          "type": "address"
        }
      ],
      "name": "removeAuthority",
      "outputs": [],
      "stateMutability": "nonpayable",
      "type": "function"
    },
    {
      "inputs": [
        {
          "internalType": "address",
          "name": "existingIssuer",
          "type": "address"
        }
      ],
      "name": "removeIssuer",
      "outputs": [],
      "stateMutability": "nonpayable",
      "type": "function"
    },
    {
      "inputs": [
        {
          "internalType": "address",
          "name": "user",
          "type": "address"
        },
        {
          "internalType": "uint256",
          "name": "index",
          "type": "uint256"
        }
      ],
      "name": "revokeCertificate",
      "outputs": [],
      "stateMutability": "nonpayable",
      "type": "function"
    }
  ],
  "transactionHash": "0x1092963c376322e3eb5490393dad119dc90241380c90facda88a75c5a7fd7211",
  "args": [
    "0xf39Fd6e51aad88F6F4ce6aB8827279cffFb92266"
  ],
  "numDeployments": 1,
  "solcInputHash": "28f796c537331da15ba7bb8e5bc9e66a",
  "bytecode": "0x60a06040523480156200001157600080fd5b5060405162001c2d38038062001c2d833981810160405281019062000037919062000134565b8073ffffffffffffffffffffffffffffffffffffffff1660808173ffffffffffffffffffffffffffffffffffffffff168152505060016000808373ffffffffffffffffffffffffffffffffffffffff1673ffffffffffffffffffffffffffffffffffffffff16815260200190815260200160002060006101000a81548160ff021916908360ff1602179055505062000166565b600080fd5b600073ffffffffffffffffffffffffffffffffffffffff82169050919050565b6000620000fc82620000cf565b9050919050565b6200010e81620000ef565b81146200011a57600080fd5b50565b6000815190506200012e8162000103565b92915050565b6000602082840312156200014d576200014c620000ca565b5b60006200015d848285016200011d565b91505092915050565b608051611a966200019760003960008181610478015281816105ba0152818161071c0152610a7f0152611a966000f3fe608060405234801561001057600080fd5b506004361061009e5760003560e01c8063817bb33111610066578063817bb3311461014357806391223d6914610173578063d544e010146101a3578063ec1fe611146101bf578063ee5354a5146101ef5761009e565b80630c814a8c146100a357806320694db0146100bf57806326defa73146100db57806338a7543e146100f757806347bc709314610127575b600080fd5b6100bd60048036038101906100b89190611227565b61020b565b005b6100d960048036038101906100d49190611270565b61041e565b005b6100f560048036038101906100f09190611270565b610560565b005b610111600480360381019061010c9190611270565b6106a2565b60405161011e91906112b9565b60405180910390f35b610141600480360381019061013c9190611270565b6106c2565b005b61015d600480360381019061015891906112d4565b610805565b60405161016a9190611436565b60405180910390f35b61018d60048036038101906101889190611270565b610a5d565b60405161019a91906112b9565b60405180910390f35b6101bd60048036038101906101b89190611270565b610a7d565b005b6101d960048036038101906101d49190611270565b610b66565b6040516101e69190611590565b60405180910390f35b610209600480360381019061020491906112d4565b610d67565b005b60018060003373ffffffffffffffffffffffffffffffffffffffff1673ffffffffffffffffffffffffffffffffffffffff16815260200190815260200160002060009054906101000a900460ff1660ff161461029c576040517f08c379a000000000000000000000000000000000000000000000000000000000815260040161029390611635565b60405180910390fd5b4281604001818152505033816020019073ffffffffffffffffffffffffffffffffffffffff16908173ffffffffffffffffffffffffffffffffffffffff168152505060026000826000015173ffffffffffffffffffffffffffffffffffffffff1673ffffffffffffffffffffffffffffffffffffffff16815260200190815260200160002081908060018154018082558091505060019003906000526020600020906005020160009091909190915060008201518160000160006101000a81548173ffffffffffffffffffffffffffffffffffffffff021916908373ffffffffffffffffffffffffffffffffffffffff16021790555060208201518160010160006101000a81548173ffffffffffffffffffffffffffffffffffffffff021916908373ffffffffffffffffffffffffffffffffffffffff1602179055506040820151816002015560608201518160030160006101000a81548160ff02191690831515021790555060808201518160040190816104189190611861565b50505050565b60016000803373ffffffffffffffffffffffffffffffffffffffff1673ffffffffffffffffffffffffffffffffffffffff16815260200190815260200160002060009054906101000a900460ff1660ff1614806104c657507f000000000000000000000000000000000000000000000000000000000000000073ffffffffffffffffffffffffffffffffffffffff163373ffffffffffffffffffffffffffffffffffffffff16145b610505576040517f08c379a00000000000000000000000000000000000000000000000000000000081526004016104fc9061197f565b60405180910390fd5b60018060008373ffffffffffffffffffffffffffffffffffffffff1673ffffffffffffffffffffffffffffffffffffffff16815260200190815260200160002060006101000a81548160ff021916908360ff16021790555050565b60016000803373ffffffffffffffffffffffffffffffffffffffff1673ffffffffffffffffffffffffffffffffffffffff16815260200190815260200160002060009054906101000a900460ff1660ff16148061060857507f000000000000000000000000000000000000000000000000000000000000000073ffffffffffffffffffffffffffffffffffffffff163373ffffffffffffffffffffffffffffffffffffffff16145b610647576040517f08c379a000000000000000000000000000000000000000000000000000000000815260040161063e9061197f565b60405180910390fd5b60016000808373ffffffffffffffffffffffffffffffffffffffff1673ffffffffffffffffffffffffffffffffffffffff16815260200190815260200160002060006101000a81548160ff021916908360ff16021790555050565b60016020528060005260406000206000915054906101000a900460ff1681565b60016000803373ffffffffffffffffffffffffffffffffffffffff1673ffffffffffffffffffffffffffffffffffffffff16815260200190815260200160002060009054906101000a900460ff1660ff16148061076a57507f000000000000000000000000000000000000000000000000000000000000000073ffffffffffffffffffffffffffffffffffffffff163373ffffffffffffffffffffffffffffffffffffffff16145b6107a9576040517f08c379a00000000000000000000000000000000000000000000000000000000081526004016107a09061197f565b60405180910390fd5b6000600160008373ffffffffffffffffffffffffffffffffffffffff1673ffffffffffffffffffffffffffffffffffffffff16815260200190815260200160002060006101000a81548160ff021916908360ff16021790555050565b61080d610ef2565b81600260008573ffffffffffffffffffffffffffffffffffffffff1673ffffffffffffffffffffffffffffffffffffffff1681526020019081526020016000208054905011610888576040517f4953dd7600000000000000000000000000000000000000000000000000000000815260040160405180910390fd5b600260008473ffffffffffffffffffffffffffffffffffffffff1673ffffffffffffffffffffffffffffffffffffffff16815260200190815260200160002082815481106108d9576108d861199f565b5b90600052602060002090600502016040518060a00160405290816000820160009054906101000a900473ffffffffffffffffffffffffffffffffffffffff1673ffffffffffffffffffffffffffffffffffffffff1673ffffffffffffffffffffffffffffffffffffffff1681526020016001820160009054906101000a900473ffffffffffffffffffffffffffffffffffffffff1673ffffffffffffffffffffffffffffffffffffffff1673ffffffffffffffffffffffffffffffffffffffff168152602001600282015481526020016003820160009054906101000a900460ff161515151581526020016004820180546109d390611684565b80601f01602080910402602001604051908101604052809291908181526020018280546109ff90611684565b8015610a4c5780601f10610a2157610100808354040283529160200191610a4c565b820191906000526020600020905b815481529060010190602001808311610a2f57829003601f168201915b505050505081525050905092915050565b60006020528060005260406000206000915054906101000a900460ff1681565b7f000000000000000000000000000000000000000000000000000000000000000073ffffffffffffffffffffffffffffffffffffffff163373ffffffffffffffffffffffffffffffffffffffff1614610b0b576040517f08c379a0000000000000000000000000000000000000000000000000000000008152600401610b0290611a40565b60405180910390fd5b60008060008373ffffffffffffffffffffffffffffffffffffffff1673ffffffffffffffffffffffffffffffffffffffff16815260200190815260200160002060006101000a81548160ff021916908360ff16021790555050565b6060600260008373ffffffffffffffffffffffffffffffffffffffff1673ffffffffffffffffffffffffffffffffffffffff168152602001908152602001600020805480602002602001604051908101604052809291908181526020016000905b82821015610d5c57838290600052602060002090600502016040518060a00160405290816000820160009054906101000a900473ffffffffffffffffffffffffffffffffffffffff1673ffffffffffffffffffffffffffffffffffffffff1673ffffffffffffffffffffffffffffffffffffffff1681526020016001820160009054906101000a900473ffffffffffffffffffffffffffffffffffffffff1673ffffffffffffffffffffffffffffffffffffffff1673ffffffffffffffffffffffffffffffffffffffff168152602001600282015481526020016003820160009054906101000a900460ff16151515158152602001600482018054610ccb90611684565b80601f0160208091040260200160405190810160405280929190818152602001828054610cf790611684565b8015610d445780601f10610d1957610100808354040283529160200191610d44565b820191906000526020600020905b815481529060010190602001808311610d2757829003601f168201915b50505050508152505081526020019060010190610bc7565b505050509050919050565b60018060003373ffffffffffffffffffffffffffffffffffffffff1673ffffffffffffffffffffffffffffffffffffffff16815260200190815260200160002060009054906101000a900460ff1660ff1614610df8576040517f08c379a0000000000000000000000000000000000000000000000000000000008152600401610def90611635565b60405180910390fd5b80600260008473ffffffffffffffffffffffffffffffffffffffff1673ffffffffffffffffffffffffffffffffffffffff1681526020019081526020016000208054905011610e73576040517f4953dd7600000000000000000000000000000000000000000000000000000000815260040160405180910390fd5b6001600260008473ffffffffffffffffffffffffffffffffffffffff1673ffffffffffffffffffffffffffffffffffffffff1681526020019081526020016000208281548110610ec657610ec561199f565b5b906000526020600020906005020160030160006101000a81548160ff0219169083151502179055505050565b6040518060a00160405280600073ffffffffffffffffffffffffffffffffffffffff168152602001600073ffffffffffffffffffffffffffffffffffffffff16815260200160008152602001600015158152602001606081525090565b6000604051905090565b600080fd5b600080fd5b600080fd5b6000601f19601f8301169050919050565b7f4e487b7100000000000000000000000000000000000000000000000000000000600052604160045260246000fd5b610fb182610f68565b810181811067ffffffffffffffff82111715610fd057610fcf610f79565b5b80604052505050565b6000610fe3610f4f565b9050610fef8282610fa8565b919050565b600080fd5b600073ffffffffffffffffffffffffffffffffffffffff82169050919050565b600061102482610ff9565b9050919050565b61103481611019565b811461103f57600080fd5b50565b6000813590506110518161102b565b92915050565b6000819050919050565b61106a81611057565b811461107557600080fd5b50565b60008135905061108781611061565b92915050565b60008115159050919050565b6110a28161108d565b81146110ad57600080fd5b50565b6000813590506110bf81611099565b92915050565b600080fd5b600080fd5b600067ffffffffffffffff8211156110ea576110e9610f79565b5b6110f382610f68565b9050602081019050919050565b82818337600083830152505050565b600061112261111d846110cf565b610fd9565b90508281526020810184848401111561113e5761113d6110ca565b5b611149848285611100565b509392505050565b600082601f830112611166576111656110c5565b5b813561117684826020860161110f565b91505092915050565b600060a0828403121561119557611194610f63565b5b61119f60a0610fd9565b905060006111af84828501611042565b60008301525060206111c384828501611042565b60208301525060406111d784828501611078565b60408301525060606111eb848285016110b0565b606083015250608082013567ffffffffffffffff81111561120f5761120e610ff4565b5b61121b84828501611151565b60808301525092915050565b60006020828403121561123d5761123c610f59565b5b600082013567ffffffffffffffff81111561125b5761125a610f5e565b5b6112678482850161117f565b91505092915050565b60006020828403121561128657611285610f59565b5b600061129484828501611042565b91505092915050565b600060ff82169050919050565b6112b38161129d565b82525050565b60006020820190506112ce60008301846112aa565b92915050565b600080604083850312156112eb576112ea610f59565b5b60006112f985828601611042565b925050602061130a85828601611078565b9150509250929050565b61131d81611019565b82525050565b61132c81611057565b82525050565b61133b8161108d565b82525050565b600081519050919050565b600082825260208201905092915050565b60005b8381101561137b578082015181840152602081019050611360565b60008484015250505050565b600061139282611341565b61139c818561134c565b93506113ac81856020860161135d565b6113b581610f68565b840191505092915050565b600060a0830160008301516113d86000860182611314565b5060208301516113eb6020860182611314565b5060408301516113fe6040860182611323565b5060608301516114116060860182611332565b50608083015184820360808601526114298282611387565b9150508091505092915050565b6000602082019050818103600083015261145081846113c0565b905092915050565b600081519050919050565b600082825260208201905092915050565b6000819050602082019050919050565b600060a08301600083015161149c6000860182611314565b5060208301516114af6020860182611314565b5060408301516114c26040860182611323565b5060608301516114d56060860182611332565b50608083015184820360808601526114ed8282611387565b9150508091505092915050565b60006115068383611484565b905092915050565b6000602082019050919050565b600061152682611458565b6115308185611463565b93508360208202850161154285611474565b8060005b8581101561157e578484038952815161155f85826114fa565b945061156a8361150e565b925060208a01995050600181019050611546565b50829750879550505050505092915050565b600060208201905081810360008301526115aa818461151b565b905092915050565b600082825260208201905092915050565b7f4f6e6c7920697373756572732063616e2063616c6c20746869732066756e637460008201527f696f6e0000000000000000000000000000000000000000000000000000000000602082015250565b600061161f6023836115b2565b915061162a826115c3565b604082019050919050565b6000602082019050818103600083015261164e81611612565b9050919050565b7f4e487b7100000000000000000000000000000000000000000000000000000000600052602260045260246000fd5b6000600282049050600182168061169c57607f821691505b6020821081036116af576116ae611655565b5b50919050565b60008190508160005260206000209050919050565b60006020601f8301049050919050565b600082821b905092915050565b6000600883026117177fffffffffffffffffffffffffffffffffffffffffffffffffffffffffffffffff826116da565b61172186836116da565b95508019841693508086168417925050509392505050565b6000819050919050565b600061175e61175961175484611057565b611739565b611057565b9050919050565b6000819050919050565b61177883611743565b61178c61178482611765565b8484546116e7565b825550505050565b600090565b6117a1611794565b6117ac81848461176f565b505050565b5b818110156117d0576117c5600082611799565b6001810190506117b2565b5050565b601f821115611815576117e6816116b5565b6117ef846116ca565b810160208510156117fe578190505b61181261180a856116ca565b8301826117b1565b50505b505050565b600082821c905092915050565b60006118386000198460080261181a565b1980831691505092915050565b60006118518383611827565b9150826002028217905092915050565b61186a82611341565b67ffffffffffffffff81111561188357611882610f79565b5b61188d8254611684565b6118988282856117d4565b600060209050601f8311600181146118cb57600084156118b9578287015190505b6118c38582611845565b86555061192b565b601f1984166118d9866116b5565b60005b82811015611901578489015182556001820191506020850194506020810190506118dc565b8683101561191e578489015161191a601f891682611827565b8355505b6001600288020188555050505b505050505050565b7f4e6f7420616e20417574686f7269747900000000000000000000000000000000600082015250565b60006119696010836115b2565b915061197482611933565b602082019050919050565b600060208201905081810360008301526119988161195c565b9050919050565b7f4e487b7100000000000000000000000000000000000000000000000000000000600052603260045260246000fd5b7f4f6e6c79206f776e6572732063616e2063616c6c20746869732066756e63746960008201527f6f6e000000000000000000000000000000000000000000000000000000000000602082015250565b6000611a2a6022836115b2565b9150611a35826119ce565b604082019050919050565b60006020820190508181036000830152611a5981611a1d565b905091905056fea2646970667358221220c72213f086c17d037363990efffa1e3f206752b0817772766989618d5b5f016e64736f6c63430008120033",
  "devdoc": {
    "kind": "dev",
    "methods": {},
    "version": 1
  },
  "userdoc": {
    "kind": "user",
    "methods": {},
    "version": 1
  },
  "storageLayout": {
    "storage": [
      {
        "astId": 7,
        "contract": "contracts/Certify.sol:Certify",
        "label": "authorities",
        "offset": 0,
        "slot": "0",
        "type": "t_mapping(t_address,t_uint8)"
      },
      {
        "astId": 11,
        "contract": "contracts/Certify.sol:Certify",
        "label": "issuers",
        "offset": 0,
        "slot": "1",
        "type": "t_mapping(t_address,t_uint8)"
      },
      {
        "astId": 17,
        "contract": "contracts/Certify.sol:Certify",
        "label": "certificates",
        "offset": 0,
        "slot": "2",
        "type": "t_mapping(t_address,t_array(t_struct(Certificate)30_storage)dyn_storage)"
      }
    ],
    "types": {
      "t_address": {
        "encoding": "inplace",
        "label": "address",
        "numberOfBytes": "20"
      },
      "t_array(t_struct(Certificate)30_storage)dyn_storage": {
        "base": "t_struct(Certificate)30_storage",
        "encoding": "dynamic_array",
        "label": "struct Certify.Certificate[]",
        "numberOfBytes": "32"
      },
      "t_bool": {
        "encoding": "inplace",
        "label": "bool",
        "numberOfBytes": "1"
      },
      "t_mapping(t_address,t_array(t_struct(Certificate)30_storage)dyn_storage)": {
        "encoding": "mapping",
        "key": "t_address",
        "label": "mapping(address => struct Certify.Certificate[])",
        "numberOfBytes": "32",
        "value": "t_array(t_struct(Certificate)30_storage)dyn_storage"
      },
      "t_mapping(t_address,t_uint8)": {
        "encoding": "mapping",
        "key": "t_address",
        "label": "mapping(address => uint8)",
        "numberOfBytes": "32",
        "value": "t_uint8"
      },
      "t_string_storage": {
        "encoding": "bytes",
        "label": "string",
        "numberOfBytes": "32"
      },
      "t_struct(Certificate)30_storage": {
        "encoding": "inplace",
        "label": "struct Certify.Certificate",
        "members": [
          {
            "astId": 21,
            "contract": "contracts/Certify.sol:Certify",
            "label": "issuedTo",
            "offset": 0,
            "slot": "0",
            "type": "t_address"
          },
          {
            "astId": 23,
            "contract": "contracts/Certify.sol:Certify",
            "label": "issuedBy",
            "offset": 0,
            "slot": "1",
            "type": "t_address"
          },
          {
            "astId": 25,
            "contract": "contracts/Certify.sol:Certify",
            "label": "issuedAt",
            "offset": 0,
            "slot": "2",
            "type": "t_uint256"
          },
          {
            "astId": 27,
            "contract": "contracts/Certify.sol:Certify",
            "label": "isRevoked",
            "offset": 0,
            "slot": "3",
            "type": "t_bool"
          },
          {
            "astId": 29,
            "contract": "contracts/Certify.sol:Certify",
            "label": "encryptedData",
            "offset": 0,
            "slot": "4",
            "type": "t_string_storage"
          }
        ],
        "numberOfBytes": "160"
      },
      "t_uint256": {
        "encoding": "inplace",
        "label": "uint256",
        "numberOfBytes": "32"
      },
      "t_uint8": {
        "encoding": "inplace",
        "label": "uint8",
        "numberOfBytes": "1"
      }
    }
  }
}